:020000000828CE
:020008000900ED
:10001000831603178B018101890188010F30860047
:1000200083120317890187018801831603138E0148
:10003000950196019D018701FF308500831203130E
:100040009001940198019D01970187018601850126
:1000500029281030860000300619622003308618E7
:10006000622006300618622009308619622020308E
:1000700086000C30061962200F308618622012307C
:10008000061862201530861962204030860018302C
:10009000061962201B30861862201E300618622066
:1000A00021308619622080308600243006186220B4
:1000B0002730861862202A30061962202D308619D2
:1000C0006220292882073530A20093203B30A2000D
:1000D00093203F30A20093204730A20093204F305E
:1000E000A20093205930A20093205E30A2009320FA
:1000F0006A30A20093207730A20093207E30A200C5
:1001000093208E30A20093209F30A2009320B23023
:10011000A2009320BD30A2009320D430A2009320EF
:10012000EE30A200932001300506870098200800D9
:100130000130A1000130A000A00B9C28A10B9A283F
:06014000A20B9828080044
:04400E00F120FF3F5F
:00000001FF
