:020000000828CE
:020008000900ED
:10001000831603178B018101890188010F30860047
:1000200083120317890187018801831603138E0148
:10003000950196019D018701FF308500831203130E
:100040009001940198019D01970187018601850126
:1000500029281030860000300618622004308618E7
:1000600062200830061962200C3086196220203088
:10007000860010300618622014308618622018306E
:10008000061962201C30861962204030860020301C
:100090000618622024308618622028300619622053
:1000A0002C3086196220803086003030061862209D
:1000B0003430861862203830061962203C308619A8
:1000C0006220292882072E30A200A32008003430A5
:1000D000A200A32008003730A200A32008003E3071
:1000E000A200A32008004730A200A320080050303F
:1000F000A200A32008005530A200A3200800613010
:10010000A200A32008006C30A200A32008007330D6
:10011000A200A32008008130A200A3200800913093
:10012000A200A3200800A430A200A3200800AE3043
:10013000A200A3200800C530A200A3200800DB30E5
:10014000A200A3200800013005068700A8200800AF
:100150000130A1000330A000A00BAC28A10BAA28FD
:06016000A20BA828080014
:04400E00F120FF3F5F
:00000001FF
