:100EBC000900602F831603178B01810189018801BA
:100ECC000F3086008312031789018701880183166E
:100EDC0003138E01950196019D018701FF3085005A
:100EEC00831203139001940198019D0197018701CE
:100EFC0086018501051420308600842F831203138C
:100F0C001030860000300619BF2703308618BF2723
:100F1C0006300618BF2709308619BF2720308600F7
:100F2C000C300619BF270F308618BF271230061851
:100F3C00BF2715308619BF27403086001830061998
:100F4C00BF271B308618BF271E300618BF2721303D
:100F5C008619BF278030860024300618BF2727301B
:100F6C008618BF272A300619BF272D308619BF27B0
:100F7C00842F82073530A300F0273B30A300F027E5
:100F8C003F30A300F0274730A300F0274F30A300D9
:100F9C00F0275930A300F0275E30A300F0276A3009
:100FAC00A300F0277730A300F0277E30A300F027B2
:100FBC008E30A300F0279F30A300F027B230A3009F
:100FCC00F027BD30A300F027D430A300F027EE307B
:100FDC00A300F027013005068700F5270800013033
:100FEC00A1000130A000A00BF92FA10BF72FA30B30
:040FFC00F52F0800C5
:04400E00F120FF3F5F
:00000001FF
