:100F4E00A82F831603178B01810189010F308600AC
:100F5E0083120317890183160313950196019D01D0
:100F6E008701831203139001940198019D0197014B
:100F7E0087018601C22F8312031340308600393059
:100F8E000619FE2F38308618FE2F37300618FE2F22
:100F9E0043308619FE2F2030860036300619FE2F7C
:100FAE0035308618FE2F34300618FE2F4230861943
:100FBE00FE2F1030860033300619FE2F3230861881
:100FCE00FE2F31300618FE2F41308619FE2F80304D
:100FDE0086002A300618FE2F30308618FE2F23305A
:100FEE000619FE2F44308619FE2F7F30FE2F870004
:020FFE00C22F00
:04400E00F120FF3F5F
:00000001FF
