:100F5200AA2F831603178B01810189010F308600A6
:100F620083120317890183160313950196019D01CC
:100F72008701831203139001940198019D01970147
:100F820087018601C42F8312031380308600B93093
:100F92000619FE2FB8308618FE2FB7300618FE2F1E
:100FA200C3308619FE2F00308600B6300619FE2F98
:100FB200B5308618FE2FB4300618FE2FC2308619BF
:100FC200FE2F10308600B3300619FE2FB23086187D
:100FD200FE2FB1300618FE2FC1308619FE2F803049
:100FE2008600AA300619FE2FB0308618FE2FA330D5
:0E0FF2000618FE2FC4308619FE2F8700C42F6C
:04400E00F120FF3F5F
:00000001FF
